:100000000C9463000C948B000C948B000C948B006C
:100010000C948B000C948B000C948B000C948B0034
:100020000C948B000C948B000C948B000C948B0024
:100030000C948B000C948B000C948B000C948B0014
:100040000C94F2030C948B000C94E7040C9435058B
:100050000C948B000C948B000C948B000C948B00F4
:100060000C948B000C948B000000000024002700EF
:100070002A0000000000250028002B0000000000DE
:1000800023002600290004040404040404040202DA
:100090000202020203030303030301020408102007
:1000A0004080010204081020010204081020000012
:1000B0000007000201000003040600000000000029
:1000C00000002E03A10611241FBECFEFD8E0DEBF33
:1000D000CDBF11E0A0E0B1E0E0E5F5E102C00590A0
:1000E0000D92AC3DB107D9F712E0ACEDB1E001C023
:1000F0001D92AA39B107E1F710E0C6ECD0E004C0C8
:100100002297FE010E946B0AC23CD107C9F70E94E8
:1001100070070C94A60A0C940000AEE0B0E0E3E98E
:10012000F0E00C947D0A0D891E8986E08C831A8389
:1001300009838FEF9FE79E838D839E01275E3F4F4C
:10014000CE0101966F89788DA9010E94B1002F819F
:100150003885020F131FF80110822E96E4E00C94EC
:10016000990AABE0B0E0E7EBF0E00C946F0A3C01D9
:100170002B015A01FC0117821682838181FD03C085
:100180006FEF7FEFC6C19AE0892E1E010894211CF3
:10019000311CF3012381F20123FD859123FF81911D
:1001A0002F01882309F4B2C1853239F423FD8591EA
:1001B00023FF81912F01853229F490E0B3010E9441
:1001C000A402E7CF982FFF24EE249924FFE1FF1526
:1001D000D0F09B3269F09C3228F4903259F093327F
:1001E00091F40EC09D3249F0903369F441E024C08F
:1001F00052E0F52A84E0F82A28C098E0F92A25C0C0
:10020000E0E1FE2A22C0F7FC29C0892F80538A3002
:1002100070F4F6FE05C0989C902C1124980E15C021
:10022000E89CE02C1124E80EF0E2FF2A0EC09E327A
:1002300029F4F6FC6BC140E4F42A07C09C3619F49B
:1002400050E8F52A02C0983649F4F20123FD959151
:1002500023FF91912F01992309F0B8CF892F85545D
:10026000833018F08052833038F444E050E0A40E1C
:10027000B51E5FE359830FC0933631F0933779F0A1
:10028000933509F056C020C0F5018081898342E092
:1002900050E0A40EB51E610101E010E012C0F501AE
:1002A000C080D180F6FC03C06FEF7FEF02C0692DE4
:1002B00070E042E050E0A40EB51EC6010E94990213
:1002C0008C015FE7F52214C0F501C080D180F6FCF7
:1002D00003C06FEF7FEF02C0692D70E042E050E095
:1002E000A40EB51EC6010E948E028C0150E8F52AAC
:1002F000F3FE07C01AC080E290E0B3010E94A4029E
:10030000EA948E2D90E008171907A8F30EC0F601A5
:10031000F7FC8591F7FE81916F0190E0B3010E9497
:10032000A402E110EA94015010400115110579F77B
:10033000EAC0943611F0993669F5F7FE08C0F50168
:10034000208131814281538184E090E00AC0F5012F
:10035000808191819C01442737FD4095542F82E094
:1003600090E0A80EB91E9FE6F92257FF09C05095EC
:100370004095309521953F4F4F4F5F4FE0E8FE2A63
:10038000CA01B901A1012AE030E00E94D002D82EB2
:10039000D21840C0953729F41F2D1F7E2AE030E087
:1003A0001DC01F2D197F9F3661F0903720F49835BE
:1003B00009F0ACC00FC0903739F0983709F0A6C0EB
:1003C00004C028E030E00AC0106114FD146020E190
:1003D00030E004C014FD166020E132E017FF08C0D1
:1003E000F501608171818281938144E050E008C011
:1003F000F50180819181BC0180E090E042E050E015
:10040000A40EB51EA1010E94D002D82ED2188FE7EB
:10041000F82EF122F6FE0BC05EEFF522D91438F467
:10042000F4FE07C0F2FC05C08FEEF82202C01D2DBD
:1004300001C0192DF4FE0DC0FE01ED0DF11D8081EE
:10044000803319F499EEF92208C01F5FF2FE05C04F
:1004500003C08F2D867809F01F5F0F2DF3FC14C0A9
:10046000F0FE0FC01E1510F09D2C0BC09D2C9E0C95
:10047000911A1E2D06C080E290E0B3010E94A402F2
:100480001F5F1E15C0F304C01E1510F4E11A01C051
:10049000EE2404FF0FC080E390E0B3010E94A402A9
:1004A00002FF1DC001FD03C088E790E00EC088E593
:1004B00090E00BC0802F867891F001FF02C08BE2A4
:1004C00001C080E2F7FC8DE290E0B3010E94A4023B
:1004D00006C080E390E0B3010E94A4029A94D9146C
:1004E000C0F3DA94F101ED0DF11D808190E0B301CC
:1004F0000E94A402DD20A9F706C080E290E0B301CB
:100500000E94A402EA94EE20C1F743CEF301668173
:100510007781CB012B96E2E10C948B0AFC010590CC
:10052000615070400110D8F7809590958E0F9F1FF5
:100530000895FC016150704001900110D8F780953A
:1005400090958E0F9F1F08950F931F93CF93DF9366
:100550008C01EB018B8181FF1BC082FF0DC02E81BE
:100560003F818C819D812817390764F4E881F981E6
:100570000193F983E88306C0E885F985802F099502
:10058000892B31F48E819F8101969F838E8302C0D7
:100590000FEF1FEFC801DF91CF911F910F910895C9
:1005A000FA01AA27283051F1203181F1E8946F93A4
:1005B0006E7F6E5F7F4F8F4F9F4FAF4FB1E03ED04A
:1005C000B4E03CD0670F781F891F9A1FA11D680FE8
:1005D000791F8A1F911DA11D6A0F711D811D911D1B
:1005E000A11D20D009F468943F912AE0269F112490
:1005F0003019305D3193DEF6CF010895462F4770F4
:10060000405D4193B3E00FD0C9F7F6CF462F4F704E
:10061000405D4A3318F0495D31FD4052419302D0AC
:10062000A9F7EACFB4E0A695979587957795679552
:10063000BA95C9F700976105710508959B01AC0152
:100640000A2E06945795479537952795BA95C9F779
:10065000620F731F841F951FA01D08958CED91E0FC
:100660006DE00E947F070895EF92FF920F931F9312
:10067000DF93CF93CDB7DEB7C058D0400FB6F89414
:10068000DEBF0FBECDBF60ED77E080E090E00E945E
:1006900048048CED91E00E94B007833009F476C0E5
:1006A000843038F4813009F467C0823008F069C0C2
:1006B0000DC0853009F474C0853008F46CC08630F4
:1006C00009F455C0873009F076C06FC08DB79EB76A
:1006D00008970FB6F8949EBF0FBE8DBF0DB71EB71B
:1006E0000F5F1F4F7E010894E11CF11CEDB7FEB7B0
:1006F000F282E18280E091E0F8019383828360914D
:10070000E5017091E601882777FD8095982F0E947A
:10071000BB0920E030E040E251E40E9420090E9441
:100720008809F801758364836091E3017091E401A5
:10073000882777FD8095982F0E94BB0920E030E044
:1007400040E251E40E9420090E948809F801778361
:1007500066830E948D008DB79EB708960FB6F894F9
:100760009EBF0FBE8DBF88E792E0B70122C088E729
:1007700092E060E271E01DC088E792E06BE371E017
:1007800018C088E792E06FE471E013C088E792E058
:1007900066E671E00EC088E792E06DE771E009C09F
:1007A00088E792E066E971E004C088E792E06FEACA
:1007B00071E00E945D07C058DF4F0FB6F894DEBFAE
:1007C0000FBECDBFCF91DF911F910F91FF90EF90A2
:1007D000089588E792E040E855E260E070E00E940A
:1007E000700508951F920F920FB60F9211242F9348
:1007F0003F938F939F93AF93BF938091EB01909121
:10080000EC01A091ED01B091EE013091EF01019664
:10081000A11DB11D232F2D5F2D3720F02D570196DF
:10082000A11DB11D2093EF018093EB019093EC018A
:10083000A093ED01B093EE018091E7019091E80162
:10084000A091E901B091EA010196A11DB11D80932B
:10085000E7019093E801A093E901B093EA01BF9109
:10086000AF919F918F913F912F910F900FBE0F905D
:100870001F9018958FB7F8942091EB013091EC01FF
:100880004091ED015091EE018FBFB901CA01089569
:100890009B01AC017FB7F8948091E7019091E8014A
:1008A000A091E901B091EA0166B5A89B05C06F3F30
:1008B00019F00196A11DB11D7FBFBA2FA92F982F46
:1008C0008827860F911DA11DB11D62E0880F991F19
:1008D000AA1FBB1F6A95D1F7BC012DC0FFB7F894C2
:1008E0008091E7019091E801A091E901B091EA01BE
:1008F000E6B5A89B05C0EF3F19F00196A11DB11DFB
:10090000FFBFBA2FA92F982F88278E0F911DA11DE9
:10091000B11DE2E0880F991FAA1FBB1FEA95D1F70E
:10092000861B970B885E9340C8F2215030404040B0
:10093000504068517C4F211531054105510571F634
:100940000895019739F0880F991F880F991F029712
:100950000197F1F70895789484B5826084BD84B5D9
:10096000816084BD85B5826085BD85B5816085BDAA
:10097000EEE6F0E0808181608083E1E8F0E01082C3
:10098000808182608083808181608083E0E8F0E004
:10099000808181608083E1EBF0E0808184608083EE
:1009A000E0EBF0E0808181608083EAE7F0E0808125
:1009B0008460808380818260808380818160808385
:1009C0008081806880831092C100089508951F92ED
:1009D0000F920FB60F9211242F933F934F938F9343
:1009E0009F93EF93FF938091C00082FD1DC04091C3
:1009F000C60020913002309131022F5F3F4F2F739C
:100A0000307080913202909133022817390771F0CB
:100A1000E0913002F0913102E051FE4F408330937B
:100A200031022093300202C08091C600FF91EF9105
:100A30009F918F914F913F912F910F900FBE0F90EB
:100A40001F901895E0918402F0918502E05CFF4FC1
:100A50008191919120813181821B930B8F739070D2
:100A6000892B11F00E94E60408951F920F920FB691
:100A70000F9211242F933F938F939F93EF93FF93A4
:100A800020917402309175028091760290917702E4
:100A90002817390731F48091C1008F7D8093C10000
:100AA00014C0E0917602F0917702EC5CFD4F20815A
:100AB000809176029091770201968F739070909357
:100AC0007702809376022093C600FF91EF919F9169
:100AD0008F913F912F910F900FBE0F901F901895FF
:100AE000AF92BF92DF92EF92FF920F931F93CF933B
:100AF000DF93EC017A018B01DD24403081EE580751
:100B000080E0680780E0780711F0DD24D39491E05D
:100B1000A92EB12CEC89FD89DD2069F0C50108A062
:100B200002C0880F991F0A94E2F7808360E079E0A1
:100B30008DE390E005C0108260E874E88EE190E0FB
:100B4000A80197010E94470A215030404040504080
:100B5000569547953795279580E12030380720F046
:100B6000DD2011F0DD24D6CFE889F9893083EA89C8
:100B7000FB89208319A2EE89FF89408121E030E0C2
:100B8000C9010C8C02C0880F991F0A94E2F7482B08
:100B90004083EE89FF894081C9010D8C02C0880F16
:100BA000991F0A94E2F7482B4083EE89FF89408120
:100BB000C9010E8C02C0880F991F0A94E2F7482BD6
:100BC0004083EE89FF8980810F8C02C0220F331F82
:100BD0000A94E2F7209528232083DF91CF911F917B
:100BE0000F91FF90EF90DF90BF90AF900895DC01E0
:100BF0001C96ED91FC911D97E05CFF4F2191319186
:100C000080819181281B390B2F733070C9010895A1
:100C1000DC011C96ED91FC911D97E05CFF4F20815B
:100C20003181E054F040DF01AE5BBF4F8D919C916C
:100C300011972817390719F42FEF3FEF07C08D914F
:100C40009C91E80FF91F8081282F30E0C901089599
:100C5000DC011C96ED91FC911D97E05CFF4F20811B
:100C60003181E054F040DF01AE5BBF4F8D919C912C
:100C700011972817390719F42FEF3FEF10C08D9106
:100C80009C911197E80FF91F20818D919C911197EC
:100C900001968F73907011969C938E9330E0C901EA
:100CA0000895DC0191968C919197882339F05496A0
:100CB000ED91FC915597808186FFF9CF91961C921A
:100CC0000895CF93DF93EC01EE85FF85E05CFF4F45
:100CD00020813181E054F0402F5F3F4F2F733070FF
:100CE000DF01AE5BBF4F8D919C911197281739079B
:100CF000D1F3E05CFF4F80819181E054F040E80F38
:100D0000F91F6083EE85FF85E05CFF4F3183208310
:100D1000EE89FF89208181E090E00F8C02C0880F6E
:100D2000991F0A94E2F7282B208381E089A3EC899C
:100D3000FD8980818064808381E090E0DF91CF91A4
:100D4000089510927B0210927A0288EE93E0A0E060
:100D5000B0E080937C0290937D02A0937E02B093DA
:100D60007F028FEC91E0909379028093780280EF7C
:100D700091E0909385028093840284E392E09093C3
:100D800087028093860285EC90E09093890280939D
:100D9000880284EC90E090938B0280938A0280EC2E
:100DA00090E090938D0280938C0281EC90E0909380
:100DB0008F0280938E0282EC90E090939102809358
:100DC000900286EC90E0909393028093920284E0EC
:100DD0008093940283E08093950287E0809396024B
:100DE00085E08093970281E0809398020895CF92E6
:100DF000DF92EF92FF920F931F93CF93DF937C01CB
:100E00006B018A01C0E0D0E00FC0D6016D916D0189
:100E1000D701ED91FC910190F081E02DC70109957A
:100E2000C80FD91F015010400115110571F7CE01EF
:100E3000DF91CF911F910F91FF90EF90DF90CF90B6
:100E40000895EF92FF920F931F938C01DC01ED91B7
:100E5000FC910190F081E02D6DE009957C01D801B5
:100E6000ED91FC910190F081E02DC8016AE00995B7
:100E70009C012E0D3F1DC9011F910F91FF90EF9016
:100E80000895CF93DF93EC016115710519F420E00B
:100E900030E00FC0DB010D900020E9F71197A61B91
:100EA000B70BE881F9810280F381E02DAD0109954E
:100EB0009C01C901DF91CF910895EF92FF920F93AA
:100EC0001F937C010E9441078C01C7010E942107EA
:100ED000080F191FC8011F910F91FF90EF900895FF
:100EE000CF93DF930E94AB040E94E903C2E2D5E0F6
:100EF0000E9434032097E1F30E942205F9CF0F935B
:100F00001F938C01862F90E0FC01E656FF4FE49181
:100F1000D801EC938A579F4FFC016491E62FF0E0D3
:100F2000EE0FFF1FE458FF4F8591949112969C930A
:100F30008E9311970E943A04D80113966D937D9376
:100F40008D939C9316978DE19CEF18969C938E93AE
:100F500017971A969C938E9319971F910F91089546
:100F60004F925F927F928F929F92AF92BF92CF9259
:100F7000DF92EF92FF920F931F93DF93CF93CDB742
:100F8000DEB7AD970FB6F894DEBF0FBECDBF6C01D4
:100F9000DC017C9011960D911C9112970E943A04ED
:100FA0006AA77BA78CA79DA74E010894811C911C62
:100FB0002401CE018A96F20111922F01E817F90758
:100FC000D1F7F60183819481A581B6812AA53BA53D
:100FD0004CA55DA5281B390B4A0B5B0BDA01C90137
:100FE000805D9740A040B04010F487E013C18AA50F
:100FF0009BA5ACA5BDA5F60183839483A583B68389
:10100000F894D80111968C911197E72CE0948E21D9
:1010100011968C937894FF24A72CBB2406C0F394DC
:10102000BEE7FB1611F481E0F5C082E090E00E947B
:10103000A104F801808190E08A219B21892B79F31A
:10104000F894D80112968C9112978E2112968C9357
:10105000129711968C911197872911968C937894F9
:101060008CE494E00E94A104F894F80181818E211F
:1010700081837894FF2406C0F394FAE1FF1611F4FB
:1010800082E0C8C082E090E00E94A104D8018C9167
:1010900090E08A219B21892B79F3FF2406C0F394E9
:1010A000B3E3FB1611F483E0B5C082E090E00E9448
:1010B000A104F801808190E08A219B21892B79F796
:1010C000FF2406C0F394F4E2FF1611F484E0A2C0FA
:1010D00082E090E00E94A104D8018C9190E08A21E6
:1010E0009B21892B79F3FF2405C0B3E3FB1611F490
:1010F00085E090C0F39482E090E00E94A104F801A2
:10110000808190E08A219B21892B79F7D401FD927F
:101110004D01A415B505A1F6A0E0B0E020E030E057
:101120008E010F5F1F4F60E170E041E050E02F5FE4
:101130003F4FF801E20FF31F80818C3058F0CB0154
:10114000821B930BFA0102C0EE0FFF1F8A95E2F794
:10115000AE2BBF2B2031310551F7FE01729660E0B6
:1011600070E02FE030E041E050E080818C3048F0CA
:10117000CA01022E02C0880F991F0A94E2F7682B59
:10118000792B2150304031968FEF2F3F380769F788
:10119000FE01B29640E027E030E001E010E08081FF
:1011A0008C3040F0C801022E02C0880F991F0A94AB
:1011B000E2F7482B215030403196E415F50579F7D8
:1011C000CD019F77F6019087878377FF08C0882736
:1011D0009927861B970B9F779287818703C0F6011B
:1011E0007287618750E02B2F332727FD3A958A2F8E
:1011F00090E0820F911D860F911D272F332727FD29
:101200003A95820F911D90704817590711F086E0AA
:1012100001C080E0AD960FB6F894DEBF0FBECDBF23
:10122000CF91DF911F910F91FF90EF90DF90CF90C2
:10123000BF90AF909F908F907F905F904F90089558
:101240000CD0EBC0E3D040F0DAD030F021F45F3FB7
:1012500019F0CCC0511115C1CFC0F0D098F399232B
:10126000C9F35523B1F3951B550BBB27AA2762176A
:101270007307840738F09F5F5F4F220F331F441FAF
:10128000AA1FA9F333D00E2E3AF0E0E830D09150E7
:101290005040E695001CCAF729D0FE2F27D0660FD4
:1012A000771F881FBB1F261737074807AB07B0E813
:1012B00009F0BB0B802DBF01FF2793585F4F2AF029
:1012C0009E3F510568F092C0DCC05F3FECF3983E52
:1012D000DCF3869577956795B795F7959F5FC9F786
:1012E000880F911D9695879597F90895E1E0660F0F
:1012F000771F881FBB1F621773078407BA0720F088
:10130000621B730B840BBA0BEE1F88F7E0950895F0
:1013100004D06894B111B5C0089598D088F09F5753
:1013200090F0B92F9927B751A0F0D1F0660F771F31
:10133000881F991F1AF0BA95C9F712C0B13081F011
:101340009FD0B1E008959CC0672F782F8827B85FA1
:1013500039F0B93FCCF3869577956795B395D9F772
:101360003EF490958095709561957F4F8F4F9F4F7C
:101370000895E89409C097FB3EF490958095709588
:1013800061957F4F8F4F9F4F9923A9F0F92F96E9D1
:10139000BB279395F695879577956795B795F11146
:1013A000F8CFFAF4BB0F11F460FF1BC06F5F7F4FE3
:1013B0008F4F9F4F16C0882311F096E911C07723F5
:1013C00021F09EE8872F762F05C0662371F096E8FE
:1013D000862F70E060E02AF09A95660F771F881FCD
:1013E000DAF7880F9695879597F9089597F99F678B
:1013F00080E870E060E008959FEF80EC089500249D
:101400000A941616170618060906089500240A9469
:1014100012161306140605060895092E0394000CEF
:1014200011F4882352F0BB0F40F4BF2B11F460FF7E
:1014300004C06F5F7F4F8F4F9F4F089557FD9058A7
:10144000440F551F59F05F3F71F04795880F97FB88
:10145000991F61F09F3F79F0879508951216130642
:101460001406551FF2CF4695F1DF08C01616170671
:101470001806991FF1CF86957105610508940895A6
:10148000E894BB2766277727CB0197F90895A1E257
:101490001A2EAA1BBB1BFD010DC0AA1FBB1FEE1FEE
:1014A000FF1FA217B307E407F50720F0A21BB30B39
:1014B000E40BF50B661F771F881F991F1A9469F7B5
:1014C00060957095809590959B01AC01BD01CF0111
:1014D0000895EE0FFF1F0590F491E02D09942F92CF
:1014E0003F924F925F926F927F928F929F92AF92B4
:1014F000BF92CF92DF92EF92FF920F931F93CF9301
:10150000DF93CDB7DEB7CA1BDB0B0FB6F894DEBF97
:101510000FBECDBF09942A88398848885F846E84BD
:101520007D848C849B84AA84B984C884DF80EE8007
:10153000FD800C811B81AA81B981CE0FD11D0FB610
:10154000F894DEBF0FBECDBFED010895F894FFCF34
:101550007B74656D70657261747572653A2025697A
:101560002C2068756D69646974793A2025697D005D
:101570007B6572726F723A2027636865636B2073B4
:10158000756D206572726F72277D007B6572726F58
:10159000723A20274255532068756E67277D007B7D
:1015A0006572726F723A20276E6F74207072657365
:1015B000656E74277D007B6572726F723A202741D9
:1015C000434B2074696D656F7574277D007B657270
:1015D000726F723A202773796E632074696D656F3C
:1015E000756E74277D007B6572726F723A20276476
:1015F0006174612074696D656F756E74277D007B01
:101600006572726F723A2027706F6C6C656420741B
:101610006F6F20717569636B277D000000000061AA
:0C16200006F706F705280608065106002C
:00000001FF
